:020000040800F2
:1000000000280020A9100008391000083F1000083F
:10001000451000084B1000085110000800000000B7
:100020000000000000000000000000005710000861
:1000300063100008000000006F1000087B1000082B
:10004000F1100008F1100008F1100008F11000088C
:10005000F1100008F1100008F1100008F11000087C
:10006000F1100008F1100008F1100008F11000086C
:10007000F1100008F1100008F1100008F11000085C
:10008000F1100008F1100008F1100008F11000084C
:10009000F1100008F1100008F1100008F11000083C
:1000A000F1100008F1100008F1100008F11000082C
:1000B00089100008F110000800000000F11000088D
:1000C000F11000080000000000000000F11000081E
:1000D00000000000F1100008F1100008000000000E
:1000E000F1100008F1100008F110000800000000F5
:1000F0000000000000000000000000000000000000
:0C01000000000000000000005FF808F1A3
:10010C0010B5054C237833B9044B13B10448AFF345
:10011C0000800123237010BD24000020000000008B
:10012C00F426000808B5034B1BB103490348AFF391
:10013C00008008BD0000000028000020F426000804
:10014C0080B582B000AF78607B68092B7FD801A2A4
:10015C0052F823F0890100089F010008B50100083E
:10016C00CB010008E1010008F70100080D020008AE
:10017C0023020008390200084502000800223F2132
:10018C00384801F09BFA01224021364801F096FADA
:10019C0063E000220621334801F090FA0122792114
:1001AC00304801F08BFA58E0012224212D4801F04F
:1001BC0085FA00225B212B4801F080FA4DE00122E8
:1001CC003021284801F07AFA00224F21254801F00D
:1001DC0075FA42E001221921224801F06FFA00223F
:1001EC006621204801F06AFA37E0012212211D48ED
:1001FC0001F064FA00226D211A4801F05FFA2CE03C
:10020C0001220221174801F059FA00227D211548DC
:10021C0001F054FA21E001227821124801F04EFA43
:10022C00002207210F4801F049FA16E000227F2135
:10023C000C4801F043FA10E000226F21094801F04C
:10024C003DFA01221021074801F038FA05E001229D
:10025C007F21044801F032FA00BF00BF0837BD46C9
:10026C0080BD00BF000C014080B582B000AF0346DA
:10027C00FB71FB79013B072B00F2988101A252F82C
:10028C0023F000BFB1020008130300087503000837
:10029C00D70300082D0400088F040008F10400089F
:1002AC005305000801224FF48071BF4801F006FA93
:1002BC0001224FF40071BC4801F000FA00224FF407
:1002CC008061B94801F0FAF900224FF40061B64898
:1002DC0001F0F4F900224FF48051B34801F0EEF92B
:1002EC0000224FF40051B04801F0E8F900224FF41D
:1002FC008041AD4801F0E2F900224FF40041AA48D8
:10030C0001F0DCF983E100224FF40071A64801F002
:10031C00D5F901224FF48071A34801F0CFF90022E6
:10032C004FF48061A04801F0C9F900224FF400613C
:10033C009D4801F0C3F900224FF480519A4801F016
:10034C00BDF900224FF40051974801F0B7F9002293
:10035C004FF48041944801F0B1F900224FF4004170
:10036C00914801F0ABF952E100224FF400718E4834
:10037C0001F0A4F900224FF480718B4801F09EF932
:10038C0001224FF48061884801F098F901224FF462
:10039C000061854801F092F900224FF480518248A7
:1003AC0001F08CF900224FF400517F4801F086F9DE
:1003BC0001224FF480417C4801F080F901224FF476
:1003CC000041794801F07AF921E100224FF4807163
:1003DC00754801F073F901224FF48061724801F005
:1003EC006DF901224FF400616F4801F067F90022AA
:1003FC004FF480516C4801F061F900224FF4005128
:10040C00694801F05BF901224FF48041664801F024
:10041C0055F901224FF40041634801F04FF9F6E021
:10042C0000224FF40071604801F048F900224FF4AB
:10043C0080715D4801F042F901224FF480615A4805
:10044C0001F03CF901224FF40061574801F036F9F4
:10045C0000224FF48051544801F030F900224FF43F
:10046C000051514801F02AF901224FF480414E48C5
:10047C0001F024F901224FF400414B4801F01EF920
:10048C00C5E000224FF40071474801F017F9002233
:10049C004FF48071444801F011F901224FF480614E
:1004AC00414801F00BF901224FF400613E4801F084
:1004BC0005F900224FF480513B4801F0FFF800226F
:1004CC004FF40051384801F0F9F801224FF4804103
:1004DC00354801F0F3F801224FF40041324801F0A5
:1004EC00EDF894E000224FF400712F4801F0E6F88B
:1004FC0001224FF480712C4801F0E0F800224FF4F7
:10050C008061294801F0DAF800224FF40061264896
:10051C0001F0D4F800224FF48051234801F0CEF8BA
:10052C0000224FF40051204801F0C8F800224FF48B
:10053C0080411D4801F0C2F800224FF400411A48D6
:10054C0001F0BCF863E001224FF48071164801F011
:10055C00B5F801224FF40071134801F0AFF80022F6
:10056C004FF48061104801F0A9F800224FF40061AB
:10057C000D4801F0A3F800224FF480510A4801F015
:10058C009DF800224FF40051074801F097F8002223
:10059C004FF48041044801F091F800224FF40041DF
:1005AC00014801F08BF832E0000C014001224FF4BD
:1005BC008071194801F082F801224FF4007116483D
:1005CC0001F07CF801224FF48061134801F076F8B9
:1005DC0001224FF40061104801F070F801224FF431
:1005EC0080510D4801F06AF801224FF400510A487D
:1005FC0001F064F801224FF48041074801F05EF8E5
:10060C0001224FF40041044801F058F800BF00BF2C
:10061C000837BD4680BD00BF000C014080B582B0DC
:10062C0000AF78607B68032B3CD801A252F823F012
:10063C004D060008650600087D06000897060008B0
:10064C00002240211D4801F039F801224FF460715D
:10065C001A4801F033F826E001224FF45071174884
:10066C0001F02CF800228021144801F027F81AE040
:10067C0001224FF43071114801F020F800224FF4A0
:10068C0080710E4801F01AF80DE001224FF4E07170
:10069C000A4801F013F800224FF40071074801F0EA
:1006AC000DF800E000BF064A7B6852F8233018466C
:1006BC00FFF746FD00BF0837BD4680BD000801406E
:1006CC000000002080B483B000AF786039607B6894
:1006DC00184A82FB03129210DB17D31A164A1360C6
:1006EC007968144B83FB01239A10CB17D21A13464B
:1006FC009B0013445B00CA1A0F4B5A603B680D4AAF
:10070C0082FB03129210DB17D31A0B4A93603968E1
:10071C00084B83FB01239A10CB17D21A13469B006C
:10072C0013445B00CA1A044BDA6000BF0C37BD4699
:10073C0080BC7047676666660000002080B582B09A
:10074C0000AF78607B68072B00F28E8101A252F813
:10075C0023F000BF81070008DF0700083D080008F0
:10076C009B080008F908000857090008B50900089B
:10077C00130A000800220421BA4800F09FFF01224E
:10078C000821B84800F09AFF01224FF48061B54867
:10079C0000F094FF01224FF40061B24800F08EFF8C
:1007AC0001224FF48051AF4800F088FF01224FF432
:1007BC000051AC4800F082FF01224FF48041A9485F
:1007CC0000F07CFF01224FF40041A64800F076FFB8
:1007DC0079E101220421A34800F070FF00220821D6
:1007EC00A04800F06BFF01224FF480619D4800F09F
:1007FC0065FF01224FF400619A4800F05FFF01226F
:10080C004FF48051974800F059FF01224FF40051EA
:10081C00944800F053FF01224FF48041914800F0BE
:10082C004DFF01224FF400418E4800F047FF4AE192
:10083C00012204218B4800F041FF01220821894844
:10084C0000F03CFF00224FF48061864800F036FF38
:10085C0001224FF40061834800F030FF01224FF475
:10086C008051804800F02AFF01224FF400517D484E
:10087C0000F024FF01224FF480417A4800F01EFF63
:10088C0001224FF40041774800F018FF1BE10122D0
:10089C000421744800F012FF01220821714800F075
:1008AC000DFF01224FF480616E4800F007FF00221B
:1008BC004FF400616B4800F001FF01224FF48051AE
:1008CC00684800F0FBFE01224FF40051654800F02F
:1008DC00F5FE01224FF48041624800F0EFFE012248
:1008EC004FF400415F4800F0E9FEECE001220421E6
:1008FC005C4800F0E3FE012208215A4800F0DEFEBD
:10090C0001224FF48061574800F0D8FE01224FF4C9
:10091C000061544800F0D2FE00224FF4805151483F
:10092C0000F0CCFE01224FF400514E4800F0C6FE00
:10093C0001224FF480414B4800F0C0FE01224FF4DD
:10094C000041484800F0BAFEBDE0012204214548B0
:10095C0000F0B4FE01220821424800F0AFFE012253
:10096C004FF480613F4800F0A9FE01224FF4006172
:10097C003C4800F0A3FE01224FF48051394800F0AE
:10098C009DFE00224FF40051364800F097FE0122E4
:10099C004FF48041334800F091FE01224FF40041A6
:1009AC00304800F08BFE8EE0012204212D4800F02F
:1009BC0085FE012208212B4800F080FE01224FF415
:1009CC008061284800F07AFE01224FF4006125482E
:1009DC0000F074FE01224FF48051224800F06EFEAC
:1009EC0001224FF400511F4800F068FE00224FF422
:1009FC0080411C4800F062FE01224FF4004119486E
:100A0C0000F05CFE5FE001220421164800F056FE67
:100A1C0001220821134800F051FE01224FF480619D
:100A2C00104800F04BFE01224FF400610D4800F01D
:100A3C0045FE01224FF480510A4800F03FFE01228E
:100A4C004FF40051074800F039FE01224FF4804169
:100A5C00044800F033FE00224FF40041014800F03E
:100A6C002DFE30E000080140012204211B4800F05B
:100A7C0025FE01220821194800F020FE01224FF426
:100A8C008061164800F01AFE01224FF400611348F1
:100A9C0000F014FE01224FF48051104800F00EFEBD
:100AAC0001224FF400510D4800F008FE01224FF4D2
:100ABC0080410A4800F002FE01224FF40041074831
:100ACC0000F0FCFD00BF064A7B6813441B781846F7
:100ADC00FFF7CAFB00BF0837BD4680BD00080140C8
:100AEC001000002080B584B000AF00F0FDFA00F0DB
:100AFC0093F800F019F900F0CBF801224FF6FF71D2
:100B0C003D4800F0DBFD00224FF6FF713B4800F042
:100B1C00D5FD3B4801F030FA4FF4FA7000F06AF959
:100B2C00FA2000F083F94FF47A7000F09BF90A2058
:100B3C0000F0B4F91723FB603B23BB6032237B60CE
:100B4C00304B1B68012B23D14FF47A7000F08AF9DB
:100B5C001021294800F0CAFD2021274800F0C6FDCD
:100B6C007B6801337B607B683B2B04DD00237B605F
:100B7C00BB680133BB60BB683B2B04DD0023BB604F
:100B8C00FB680133FB60FB68172B01DD0023FB6066
:100B9C001D4B1B68012B16D1B968F868FFF792FD45
:100BAC00FA2000F043F9194B1B680422934202DB34
:100BBC00164B00221A60154B1B685A1C13490A600D
:100BCC001846FFF72BFD124B1B68012BB8D1114BAC
:100BDC001B680822934202DB0E4B00221A600A208B
:100BEC0000F05CF90B4B1B685A1C0A490A6018464A
:100BFC00FFF7A4FDA4E700BF00080140000C014072
:100C0C00680000205C000020540000204000002000
:100C1C00640000204400002080B590B000AF07F1C4
:100C2C00180328220021184601F056FD3B1D002216
:100C3C001A605A609A60DA601A610223BB61012360
:100C4C00BB621023FB6200237B6307F11803184679
:100C5C0000F066FD0346002B01D000F0C5F80F2311
:100C6C007B600023BB600023FB6000233B610023FF
:100C7C007B613B1D0021184600F0D2FF0346002B80
:100C8C0001D000F0B1F800BF4037BD4680BD000078
:100C9C0080B586B000AF07F1080300221A605A60D5
:100CAC009A60DA603B4600221A605A601D4B4FF086
:100CBC0080421A601B4B41F63F725A60194B00225E
:100CCC009A60184B0922DA60164B00221A61154BF8
:100CDC0000229A61134801F0FFF80346002B01D063
:100CEC0000F082F84FF48053BB6007F108031946FB
:100CFC000C4801F07DFA0346002B01D000F074F88B
:100D0C0000233B6000237B603B461946054801F0FD
:100D1C0055FC0346002B01D000F066F800BF1837D5
:100D2C00BD4680BD6800002080B586B000AF07F1DD
:100D3C00080300221A605A609A60DA60224B9B69A1
:100D4C00214A43F0040393611F4B9B6903F0040396
:100D5C007B607B681C4B9B691B4A43F008039361C7
:100D6C00194B9B6903F008033B603B6800224FF66C
:100D7C00FC71164800F0A2FC00224FF67F7114485B
:100D8C0000F09CFC4FF6FC73BB600123FB6000235E
:100D9C003B6102237B6107F1080319460B4800F005
:100DAC0013FB4FF67F73BB600123FB6000233B6199
:100DBC0002237B6107F108031946054800F004FB88
:100DCC0000BF1837BD4680BD00100240000801402E
:100DDC00000C014080B582B000AF786000F07AF86A
:100DEC0000BF0837BD4680BD80B400AF72B600BFEF
:100DFC00FEE7000080B483B000AF78607B68084ADF
:100E0C0082FB03129210DB17D31A064A1360064BAF
:100E1C0000221A6000BF0C37BD4680BC704700BF73
:100E2C0067666666480000204C00002080B483B0E2
:100E3C0000AF78607B68084A82FB03129210DB17C4
:100E4C00D31A064A1360064B00221A6000BF0C37F7
:100E5C00BD4680BC704700BF6766666650000020C8
:100E6C005400002080B483B000AF78607B68084ADF
:100E7C0082FB03129210DB17D31A064A1360064B3F
:100E8C0000221A6000BF0C37BD4680BC704700BF03
:100E9C0067666666580000205C00002080B483B052
:100EAC0000AF78607B68084A82FB03129210DB1754
:100EBC00D31A064A1360064B00221A6000BF0C3787
:100ECC00BD4680BC704700BF676666666000002048
:100EDC006400002080B400AF214B1B68002B0BDD9D
:100EEC001F4B1B68013B1E4A13601D4B1B68002BDC
:100EFC0002DC1C4B01221A601B4B1B68002B0BDD08
:100F0C00194B1B68013B184A1360174B1B68002BCD
:100F1C0002DC164B01221A60154B1B68002B0BDDF3
:100F2C00134B1B68013B124A1360114B1B68002BBF
:100F3C0002DC104B01221A600F4B1B68002B0BDDDF
:100F4C000D4B1B68013B0C4A13600B4B1B68002BB1
:100F5C0002DC0A4B01221A6000BFBD4680BC704700
:100F6C00480000204C0000205000002054000020BD
:100F7C00580000205C00002060000020640000206D
:100F8C0080B485B000AF154B9B69144A43F0010344
:100F9C009361124B9B6903F00103BB60BB680F4B61
:100FAC00DB690E4A43F08053D3610C4BDB6903F0D1
:100FBC0080537B607B680A4B5B68FB60FB6823F0AB
:100FCC00E063FB60FB6843F08063FB60044AFB68F2
:100FDC00536000BF1437BD4680BC70470010024000
:100FEC000000014080B584B000AF78607B681B685E
:100FFC00B3F1804F13D10C4BDB690B4A43F0010367
:10100C00D361094BDB6903F00103FB60FB68002231
:10101C0000211C2000F0A1F91C2000F0BAF900BF3F
:10102C001037BD4680BD00BF0010024080B400AF39
:10103C00FEE780B400AFFEE780B400AFFEE780B4FB
:10104C0000AFFEE780B400AFFEE780B400AF00BF96
:10105C00BD4680BC704780B400AF00BFBD4680BCAD
:10106C00704780B400AF00BFBD4680BC704780B5F0
:10107C0000AF00F07FF800BF80BD000080B500AF6E
:10108C00024800F0C5FF00BF80BD00BF6800002013
:10109C0080B400AF00BFBD4680BC7047FFF7F8FFBF
:1010AC000B480C490C4A002302E0D458C4500433BA
:1010BC00C4188C42F9D3094A094C002301E013608F
:1010CC000432A242FBD301F0E3FAFFF70BFD7047A9
:1010DC0000000020240000203827000824000020F5
:1010EC00B4000020FEE7000080B500AF084B1B6881
:1010FC00074A43F010031360032000F023F90F207C
:10110C0000F008F8FFF73CFF0023184680BD00BF35
:10111C000020024080B582B000AF7860124B1A6894
:10112C00124B1B7819464FF47A73B3FBF1F3B2FBF5
:10113C00F3F3184600F03BF90346002B01D00123D2
:10114C000EE07B680F2B0AD8002279684FF0FF3035
:10115C0000F003F9064A7B681360002300E00123CA
:10116C0018460837BD4680BD18000020200000201E
:10117C001C00002080B400AF054B1B781A46054BB1
:10118C001B681344034A136000BFBD4680BC704704
:10119C0020000020B000002080B400AF024B1B6880
:1011AC001846BD4680BC7047B000002080B485B0A6
:1011BC0000AF78607B6803F00703FB600C4BDB68C7
:1011CC00BB60BA684FF6FF031340BB60FB681A02A2
:1011DC00BB68134343F0BF6343F40033BB60044A62
:1011EC00BB68D36000BF1437BD4680BC704700BFDE
:1011FC0000ED00E080B400AF044BDB681B0A03F089
:10120C0007031846BD4680BC704700BF00ED00E0E8
:10121C0080B483B000AF0346FB7197F90730002B05
:10122C000BDBFB7903F01F02064997F907305B09CA
:10123C00012000FA02F241F8232000BF0C37BD4612
:10124C0080BC704700E100E080B483B000AF03467F
:10125C003960FB7197F90730002B0ADB3B68DAB277
:10126C000C4997F907301201D2B20B4483F80023D2
:10127C000AE03B68DAB20849FB7903F00F03043B40
:10128C001201D2B20B441A7600BF0C37BD4680BC9B
:10129C00704700BF00E100E000ED00E080B489B0D1
:1012AC0000AFF860B9607A60FB6803F00703FB617C
:1012BC00FB69C3F10703042B28BF0423BB61FB6943
:1012CC000433062B02D9FB69033B00E000237B614E
:1012DC004FF0FF32BB6902FA03F3DA43BB681A40E2
:1012EC007B699A404FF0FF317B6901FA03F3D943D4
:1012FC007B680B40134318462437BD4680BC7047AF
:10130C0080B582B000AF78607B68013BB3F1807F21
:10131C0001D301230FE00A4A7B68013B53600F2184
:10132C004FF0FF30FFF790FF054B00229A60044B03
:10133C0007221A60002318460837BD4680BD00BF3F
:10134C0010E000E080B582B000AF78607868FFF7FD
:10135C002DFF00BF0837BD4680BD80B586B000AFFD
:10136C000346B9607A60FB7300237B61FFF742FF91
:10137C0078617A68B9687869FFF790FF024697F947
:10138C000F3011461846FFF75FFF00BF1837BD46F8
:10139C0080BD80B582B000AF0346FB7197F9073072
:1013AC001846FFF735FF00BF0837BD4680BD80B536
:1013BC0082B000AF78607868FFF7A2FF034618464A
:1013CC000837BD4680BD000080B48BB000AF78609C
:1013DC00396000237B6200233B6248E101227B6A77
:1013EC0002FA03F3FB613B681B68FA691340BB61AB
:1013FC00BA69FB699A4240F037813B685B68A34A43
:10140C0093425ED0A14A934275D8A14A934258D0D8
:10141C009F4A93426FD89F4A934252D09D4A93421F
:10142C0069D89D4A93424CD09B4A934263D89B4ABD
:10143C00934246D0994A93425DD8122B2AD8122B4C
:10144C0059D801A252F823F0CF140008A9140008AF
:10145C00BB140008FD140008031500080315000850
:10146C0003150008031500080315000803150008F0
:10147C0003150008031500080315000803150008E0
:10148C00031500080315000803150008B114000823
:10149C00C5140008824A934213D02CE03B68DB68E9
:1014AC003B6229E03B68DB6804333B6224E03B6829
:1014BC00DB6808333B621FE03B68DB680C333B6244
:1014CC001AE03B689B68002B02D104233B6213E0BB
:1014DC003B689B68012B05D108233B627B68FA694A
:1014EC001A6109E008233B627B68FA695A6103E0E0
:1014FC0000233B6200E000BFBB69FF2B01D87B6877
:10150C0001E07B6804337B61BB69FF2B02D87B6AEB
:10151C009B0002E07B6A083B9B003B617B691A687D
:10152C000F213B6901FA03F3DB431A40396A3B692B
:10153C0001FA03F31A437B691A603B685B6803F09A
:10154C008053002B00F09080564B9B69554A43F01A
:10155C0001039361534B9B6903F00103BB60BB68B0
:10156C00514A7B6A9B08023352F82330FB607B6A3A
:10157C0003F003039B000F2202FA03F3DB43FA6828
:10158C001340FB607B68494A93420DD07B68484A04
:10159C00934207D07B68474A934201D1022304E06F
:1015AC00032302E0012300E000237A6A02F0030225
:1015BC0092009340FA681343FB603B497B6A9B089B
:1015CC000233FA6841F823203B685B6803F480130C
:1015DC00002B06D0384B9A683749BB6913438B6094
:1015EC0006E0354B9A68BB69DB43334913408B608B
:1015FC003B685B6803F40013002B06D02E4BDA68B3
:10160C002D49BB691343CB6006E02B4BDA68BB69F1
:10161C00DB4329491340CB603B685B6803F4003320
:10162C00002B06D0244B5A682349BB6913434B60EB
:10163C0006E0214B5A68BB69DB431F4913404B60E2
:10164C003B685B6803F48033002B06D01A4B1A6896
:10165C001949BB6913430B6006E0174B1A68BB6949
:10166C00DB43154913400B607B6A01337B623B689B
:10167C001A687B6A22FA03F3002B7FF4AFAE00BF2B
:10168C0000BF2C37BD4680BC704700BF0000321035
:10169C000000311000002210000021100000121078
:1016AC000000111000100240000001400008014031
:1016BC00000C0140001001400004014080B483B0D4
:1016CC0000AF78600B467B8013467B707B78002BD9
:1016DC0003D07A887B681A6103E07B881A047B68E4
:1016EC001A6100BF0C37BD4680BC704780B485B012
:1016FC0000AF78600B467B807B68DB68FB607A8888
:10170C00FB6813401A04FB68D9437B880B401A43CF
:10171C007B681A6100BF1437BD4680BC704700005F
:10172C0080B586B000AF78607B68002B01D10123B7
:10173C006CE27B681B6803F00103002B00F08780D0
:10174C00924B5B6803F00C03042B0CD08F4B5B6843
:10175C0003F00C03082B12D18C4B5B6803F4803321
:10176C00B3F5803F0BD1894B1B6803F40033002B7E
:10177C006CD07B685B68002B68D1012346E27B68E8
:10178C005B68B3F5803F06D1804B1B687F4A43F4FE
:10179C00803313602EE07B685B68002B0CD17B4B95
:1017AC001B687A4A23F480331360784B1B68774AA2
:1017BC0023F4802313601DE07B685B68B3F5A02FD6
:1017CC000CD1724B1B68714A43F4802313606F4B2E
:1017DC001B686E4A43F4803313600BE06B4B1B6841
:1017EC006A4A23F480331360684B1B68674A23F4FE
:1017FC00802313607B685B68002B13D0FFF7CCFC55
:10180C00386108E0FFF7C8FC02463B69D31A642B29
:10181C0001D90323FAE15D4B1B6803F40033002B61
:10182C00F0D014E0FFF7B8FC386108E0FFF7B4FC27
:10183C0002463B69D31A642B01D90323E6E1534BCF
:10184C001B6803F40033002BF0D100E000BF7B6871
:10185C001B6803F00203002B63D04C4B5B6803F056
:10186C000C03002B0BD0494B5B6803F00C03082BCB
:10187C001CD1464B5B6803F48033002B16D1434BD1
:10188C001B6803F00203002B05D07B681B69012B3E
:10189C0001D00123BAE13D4B1B6823F0F8027B68B1
:1018AC005B69DB00394913430B603AE07B681B69C9
:1018BC00002B20D0364B01221A60FFF76DFC3861EB
:1018CC0008E0FFF769FC02463B69D31A022B01D9E9
:1018DC0003239BE12D4B1B6803F00203002BF0D07C
:1018EC002A4B1B6823F0F8027B685B69DB002749F5
:1018FC0013430B6015E0264B00221A60FFF74CFCDB
:10190C00386108E0FFF748FC02463B69D31A022B0A
:10191C0001D903237AE11D4B1B6803F00203002B52
:10192C00F0D17B681B6803F00803002B3AD07B686E
:10193C009B69002B19D0174B01221A60FFF72CFC66
:10194C00386108E0FFF728FC02463B69D31A022BEA
:10195C0001D903235AE10D4B5B6A03F00203002B00
:10196C00F0D0012000F09AFA1CE00A4B00221A6019
:10197C00FFF712FC38610FE0FFF70EFC02463B69E3
:10198C00D31A022B08D9032340E100BF00100240F8
:10199C0000004242800442429E4B5B6A03F0020309
:1019AC00002BE9D17B681B6803F00403002B00F0CB
:1019BC00A6800023FB75974BDB6903F08053002B4B
:1019CC000DD1944BDB69934A43F08053D361914B17
:1019DC00DB6903F08053BB60BB680123FB758E4B46
:1019EC001B6803F48073002B18D18B4B1B688A4A3D
:1019FC0043F480731360FFF7CFFB386108E0FFF707
:101A0C00CBFB02463B69D31A642B01D90323FDE0BF
:101A1C00814B1B6803F48073002BF0D07B68DB6870
:101A2C00012B06D17B4B1B6A7A4A43F001031362EC
:101A3C002DE07B68DB68002B0CD1764B1B6A754A5A
:101A4C0023F001031362734B1B6A724A23F00403E5
:101A5C0013621CE07B68DB68052B0CD16D4B1B6A99
:101A6C006C4A43F0040313626A4B1B6A694A43F0E5
:101A7C00010313620BE0674B1B6A664A23F00103F8
:101A8C001362644B1B6A634A23F0040313627B6882
:101A9C00DB68002B15D0FFF77FFB38610AE0FFF7FE
:101AAC007BFB02463B69D31A41F28832934201D93F
:101ABC000323ABE0574B1B6A03F00203002BEED061
:101ACC0014E0FFF769FB38610AE0FFF765FB02469B
:101ADC003B69D31A41F28832934201D9032395E032
:101AEC004C4B1B6A03F00203002BEED1FB7D012B48
:101AFC0005D1484BDB69474A23F08053D3617B689F
:101B0C00DB69002B00F08180424B5B6803F00C0317
:101B1C00082B61D07B68DB69022B46D13F4B00223E
:101B2C001A60FFF739FB386108E0FFF735FB024616
:101B3C003B69D31A022B01D9032367E0354B1B6891
:101B4C0003F00073002BF0D17B681B6AB3F5803F68
:101B5C0008D1304B5B6823F400327B689B682D49BD
:101B6C0013434B602B4B5B6823F474127B68196A2C
:101B7C007B685B6A0B43274913434B60274B01225D
:101B8C001A60FFF709FB386108E0FFF705FB024616
:101B9C003B69D31A022B01D9032337E01D4B1B6879
:101BAC0003F00073002BF0D02FE01C4B00221A60C6
:101BBC00FFF7F2FA386108E0FFF7EEFA02463B69EC
:101BCC00D31A022B01D9032320E0124B1B6803F01C
:101BDC000073002BF0D118E07B68DB69012B01D17D
:101BEC00012313E00B4B5B68FB60FB6803F4803252
:101BFC007B681B6A9A4206D1FB6803F470127B68FF
:101C0C005B6A9A4201D0012300E000231846183782
:101C1C00BD4680BD00100240007000406000424292
:101C2C0080B584B000AF786039607B68002B01D13F
:101C3C000123D0E06A4B1B6803F007033A689A4211
:101C4C0010D9674B1B6823F0070265493B681343A7
:101C5C000B60634B1B6803F007033A689A4201D090
:101C6C000123B8E07B681B6803F00203002B20D033
:101C7C007B681B6803F00403002B05D0594B5B6891
:101C8C00584A43F4E06353607B681B6803F0080315
:101C9C00002B05D0534B5B68524A43F4605353609E
:101CAC00504B5B6823F0F0027B689B684D491343F3
:101CBC004B607B681B6803F00103002B40D07B68F2
:101CCC005B68012B07D1474B1B6803F40033002BD7
:101CDC0015D101237FE07B685B68022B07D1414B58
:101CEC001B6803F00073002B09D1012373E03D4BFB
:101CFC001B6803F00203002B01D101236BE0394B6D
:101D0C005B6823F003027B685B68364913434B60C6
:101D1C00FFF742FAF8600AE0FFF73EFA0246FB686A
:101D2C00D31A41F28832934201D9032353E02D4B4D
:101D3C005B6803F00C027B685B689B009A42EBD1FA
:101D4C00274B1B6803F007033A689A4210D2244BC6
:101D5C001B6823F0070222493B6813430B60204B9E
:101D6C001B6803F007033A689A4201D0012332E062
:101D7C007B681B6803F00403002B08D0194B5B68CD
:101D8C0023F4E0627B68DB68164913434B607B6885
:101D9C001B6803F00803002B09D0124B5B6823F47B
:101DAC0060527B681B69DB000E4913434B6000F0EB
:101DBC0021F802460B4B5B681B0903F00F030A4921
:101DCC00CB5C22FA03F3094A1360094B1B681846D3
:101DDC00FFF7A0F9002318461037BD4680BD00BFA1
:101DEC0000200240001002400C27000818000020C0
:101DFC001C00002080B487B000AF0023FB600023E0
:101E0C00BB6000237B6100237B6000233B611E4B86
:101E1C005B68FB60FB6803F00C03042B02D0082BFF
:101E2C0003D027E0194B3B6127E0FB689B0C03F0C8
:101E3C000F03174AD35C7B60FB6803F48033002BE1
:101E4C0010D0114B5B685B0C03F00103114AD35C9F
:101E5C00BB607B680D4A02FB03F2BB68B2FBF3F379
:101E6C007B6104E07B680C4A02FB03F37B617B69BA
:101E7C003B6102E0054B3B6100BF3B6918461C37D8
:101E8C00BD4680BC704700BF0010024000127A00B3
:101E9C001C2700082C27000800093D0080B485B0E1
:101EAC0000AF78600A4B1B680A4AA2FB03235B0A4B
:101EBC007A6802FB03F3FB6000BFFB685A1EFA60F2
:101ECC00002BF9D100BF00BF1437BD4680BC704752
:101EDC0018000020D34D621080B582B000AF78603E
:101EEC007B68002B01D1012341E07B6893F83D30E6
:101EFC00DBB2002B06D17B68002283F83C2078688B
:101F0C00FFF770F87B68022283F83D207B681A6823
:101F1C007B6804331946104600F056FA7B680122A0
:101F2C0083F846207B68012283F83E207B680122DF
:101F3C0083F83F207B68012283F840207B680122D4
:101F4C0083F841207B68012283F842207B680122C0
:101F5C0083F843207B68012283F844207B680122AC
:101F6C0083F845207B68012283F83D200023184626
:101F7C000837BD4680BD000080B485B000AF7860E6
:101F8C007B6893F83D30DBB2012B01D0012335E0A7
:101F9C007B68022283F83D207B681B68DA687B68CB
:101FAC001B6842F00102DA607B681B68164A934298
:101FBC0009D07B681B68B3F1804F04D07B681B6829
:101FCC00124A934211D17B681B689B6803F007038C
:101FDC00FB60FB68062B10D07B681B681A687B685B
:101FEC001B6842F001021A6007E07B681B681A68E4
:101FFC007B681B6842F001021A60002318461437F4
:10200C00BD4680BC704700BF002C0140000400405E
:10201C0080B584B000AF78607B681B68DB68FB60C0
:10202C007B681B681B69BB60BB6803F00203002B59
:10203C0020D0FB6803F00203002B1BD07B681B68CD
:10204C006FF002021A617B6801221A777B681B68A9
:10205C009B6903F00303002B03D0786800F098F918
:10206C0005E0786800F08BF9786800F09AF97B68E5
:10207C0000221A77BB6803F00403002B20D0FB6806
:10208C0003F00403002B1BD07B681B686FF0040269
:10209C001A617B6802221A777B681B689B6903F4C0
:1020AC004073002B03D0786800F072F905E0786873
:1020BC0000F065F9786800F074F97B6800221A77F3
:1020CC00BB6803F00803002B20D0FB6803F0080367
:1020DC00002B1BD07B681B686FF008021A617B68B1
:1020EC0004221A777B681B68DB6903F00303002B5F
:1020FC0003D0786800F04CF905E0786800F03FF9FF
:10210C00786800F04EF97B6800221A77BB6803F000
:10211C001003002B20D0FB6803F01003002B1BD006
:10212C007B681B686FF010021A617B6808221A77B3
:10213C007B681B68DB6903F44073002B03D0786861
:10214C0000F026F905E0786800F019F9786800F0DD
:10215C0028F97B6800221A77BB6803F00103002B77
:10216C000CD0FB6803F00103002B07D07B681B68C5
:10217C006FF001021A617868FEF72CFEBB6803F061
:10218C008003002B0CD0FB6803F08003002B07D0DE
:10219C007B681B686FF080021A61786800F06FFA38
:1021AC00BB6803F04003002B0CD0FB6803F040032A
:1021BC00002B07D07B681B686FF040021A617868AF
:1021CC0000F0F8F8BB6803F02003002B0CD0FB6880
:1021DC0003F02003002B07D07B681B686FF02002F4
:1021EC001A61786800F042FA00BF1037BD4680BD16
:1021FC0080B584B000AF786039600023FB737B68D6
:10220C0093F83C30012B01D10223B4E07B6801220E
:10221C0083F83C207B68022283F83D207B681B6896
:10222C009B68BB60BB6823F07703BB60BB6823F47F
:10223C007F43BB607B681B68BA689A603B681B680D
:10224C00B3F5005F3ED0B3F5005F00F28780B3F5C5
:10225C00805F00F08680B3F5805F7FD8702B1AD03A
:10226C00702B7BD8602B50D0602B77D8502B3CD068
:10227C00502B73D8402B58D0402B6FD8302B64D0B8
:10228C00302B6BD8202B60D0202B67D8002B5CD048
:10229C00102B5AD062E07B6818683B6899683B68E1
:1022AC005A683B68DB6800F06AF97B681B689B68BE
:1022BC00BB60BB6843F07703BB607B681B68BA6884
:1022CC009A604FE07B6818683B6899683B685A686D
:1022DC003B68DB6800F053F97B681B689A687B6885
:1022EC001B6842F480429A603CE07B6818683B684B
:1022FC0059683B68DB681A4600F0CAF87B681B68B3
:10230C005021184600F021F92CE07B6818683B68D6
:10231C0059683B68DB681A4600F0E8F87B681B6874
:10232C006021184600F011F91CE07B6818683B68C6
:10233C0059683B68DB681A4600F0AAF87B681B6892
:10234C004021184600F001F90CE07B681A683B68E4
:10235C001B681946104600F0F8F803E00123FB73E4
:10236C0000E000BF7B68012283F83D207B680022DF
:10237C0083F83C20FB7B18461037BD4680BD80B4EB
:10238C0083B000AF786000BF0C37BD4680BC70478F
:10239C0080B483B000AF786000BF0C37BD4680BC02
:1023AC00704780B483B000AF786000BF0C37BD4677
:1023BC0080BC704780B483B000AF786000BF0C372E
:1023CC00BD4680BC7047000080B485B000AF78601B
:1023DC0039607B681B68FB607B682B4A934207D093
:1023EC007B68B3F1804F03D07B68284A934208D1B5
:1023FC00FB6823F07003FB603B685B68FA6813436F
:10240C00FB607B68204A934207D07B68B3F1804F16
:10241C0003D07B681D4A934208D1FB6823F44073B8
:10242C00FB603B68DB68FA681343FB60FB6823F0D6
:10243C0080023B685B691343FB607B68FA681A6037
:10244C003B689A687B68DA623B681A687B689A62B8
:10245C007B680D4A934203D13B681A697B681A6307
:10246C007B6801225A617B681B6903F00103002B16
:10247C0005D07B681B6923F001027B681A6100BFE1
:10248C001437BD4680BC7047002C0140000400404E
:10249C0080B487B000AFF860B9607A60FB681B6AE3
:1024AC007B61FB681B6A23F00102FB681A62FB6804
:1024BC009B693B613B6923F0F0033B617B681B012B
:1024CC003A6913433B617B6923F00A037B617A69A8
:1024DC00BB6813437B61FB683A699A61FB687A6954
:1024EC001A6200BF1C37BD4680BC704780B487B0F1
:1024FC0000AFF860B9607A60FB681B6A7B61FB68AF
:10250C001B6A23F01002FB681A62FB689B693B6133
:10251C003B6923F470433B617B681B033A691343AB
:10252C003B617B6923F0A0037B61BB681B017A696B
:10253C0013437B61FB683A699A61FB687A691A629A
:10254C0000BF1C37BD4680BC704780B485B000AF5F
:10255C00786039607B689B68FB60FB6823F07003D4
:10256C00FB603A68FB68134343F00703FB607B682E
:10257C00FA689A6000BF1437BD4680BC704780B4BF
:10258C0087B000AFF860B9607A603B60FB689B680D
:10259C007B617B6923F47F437B613B681A027B6818
:1025AC001A43BB6813437A6913437B61FB687A69EE
:1025BC009A6000BF1C37BD4680BC704780B485B0A4
:1025CC0000AF786039607B6893F83C30012B01D107
:1025DC00022341E07B68012283F83C207B680222C5
:1025EC0083F83D207B681B685B68FB607B681B681D
:1025FC009B68BB60FB6823F07003FB603B681B6847
:10260C00FA681343FB607B681B68FA685A607B6846
:10261C001B68144A934209D07B681B68B3F1804F46
:10262C0004D07B681B68104A93420CD1BB6823F022
:10263C008003BB603B685B68BA681343BB607B6814
:10264C001B68BA689A607B68012283F83D207B681E
:10265C00002283F83C20002318461437BD4680BC6A
:10266C00704700BF002C01400004004080B483B0D0
:10267C0000AF786000BF0C37BD4680BC704780B49B
:10268C0083B000AF786000BF0C37BD4680BC70478C
:10269C0070B500260C4D0D4C641BA410A64209D13C
:1026AC0000F022F800260A4D0A4C641BA410A64226
:1026BC0005D170BD55F8043B98470136EEE755F847
:1026CC00043B98470136F2E7302700083027000812
:1026DC00302700083427000803460244934200D1F7
:1026EC00704703F8011BF9E7F8B500BFF8BC08BC4C
:1026FC009E467047F8B500BFF8BC08BC9E467047B4
:10270C000000000000000000010203040607080995
:10271C0002030405060708090A0B0C0D0E0F101016
:04272C0001020000A6
:04273000310100086B
:042734000D0100088B
:102738000100000002000000030000000400000087
:10274800010203040506070800127A0010000000C1
:04275800010000007C
:04000005080010A936
:00000001FF
