:020000040800F2
:100000000028002035110008C5100008CB1000089A
:10001000D1100008D7100008DD1000080000000013
:10002000000000000000000000000000E3100008D5
:10003000EF10000800000000FB1000080711000886
:100040007D1100087D1100087D1100087D11000858
:100050007D1100087D1100087D1100087D11000848
:100060007D1100087D1100087D1100087D11000838
:100070007D1100087D1100087D1100087D11000828
:100080007D1100087D1100087D1100087D11000818
:100090007D1100087D1100087D1100087D11000808
:1000A0007D1100087D1100087D1100087D110008F8
:1000B000151100087D110008000000007D110008E6
:1000C0007D11000800000000000000007D11000804
:1000D000000000007D1100087D11000800000000F4
:1000E0007D1100087D1100087D110008000000004E
:1000F0000000000000000000000000000000000000
:0C01000000000000000000005FF808F1A3
:10010C0010B5054C237833B9044B13B10448AFF345
:10011C0000800123237010BD2C0000200000000083
:10012C008027000808B5034B1BB103490348AFF304
:10013C00008008BD0000000030000020802700086F
:10014C0080B582B000AF78607B68092B7FD801A2A4
:10015C0052F823F0890100089F010008B50100083E
:10016C00CB010008E1010008F70100080D020008AE
:10017C0023020008390200084502000800223F2132
:10018C00384801F0E1FA01224021364801F0DCFA4E
:10019C0063E000220621334801F0D6FA01227921CE
:1001AC00304801F0D1FA58E0012224212D4801F009
:1001BC00CBFA00225B212B4801F0C6FA4DE001225C
:1001CC003021284801F0C0FA00224F21254801F0C7
:1001DC00BBFA42E001221921224801F0B5FA0022B3
:1001EC006621204801F0B0FA37E0012212211D48A7
:1001FC0001F0AAFA00226D211A4801F0A5FA2CE0B0
:10020C0001220221174801F09FFA00227D21154896
:10021C0001F09AFA21E001227821124801F094FAB7
:10022C00002207210F4801F08FFA16E000227F21EF
:10023C000C4801F089FA10E000226F21094801F006
:10024C0083FA01221021074801F07EFA05E0012211
:10025C007F21044801F078FA00BF00BF0837BD4683
:10026C0080BD00BF000C014080B582B000AF0346DA
:10027C00FB71FB79013B072B00F2988101A252F82C
:10028C0023F000BFB1020008130300087503000837
:10029C00D70300082D0400088F040008F10400089F
:1002AC005305000801224FF48071BF4801F04CFA4D
:1002BC0001224FF40071BC4801F046FA00224FF4C1
:1002CC008061B94801F040FA00224FF40061B64851
:1002DC0001F03AFA00224FF48051B34801F034FA9D
:1002EC0000224FF40051B04801F02EFA00224FF4D6
:1002FC008041AD4801F028FA00224FF40041AA4891
:10030C0001F022FA83E100224FF40071A64801F0BB
:10031C001BFA01224FF48071A34801F015FA002258
:10032C004FF48061A04801F00FFA00224FF40061F5
:10033C009D4801F009FA00224FF480519A4801F0CF
:10034C0003FA00224FF40051974801F0FDF9002206
:10035C004FF48041944801F0F7F900224FF400412A
:10036C00914801F0F1F952E100224FF400718E48EE
:10037C0001F0EAF900224FF480718B4801F0E4F9A6
:10038C0001224FF48061884801F0DEF901224FF41C
:10039C000061854801F0D8F900224FF48051824861
:1003AC0001F0D2F900224FF400517F4801F0CCF952
:1003BC0001224FF480417C4801F0C6F901224FF430
:1003CC000041794801F0C0F921E100224FF480711D
:1003DC00754801F0B9F901224FF48061724801F0BF
:1003EC00B3F901224FF400616F4801F0ADF900221E
:1003FC004FF480516C4801F0A7F900224FF40051E2
:10040C00694801F0A1F901224FF48041664801F0DE
:10041C009BF901224FF40041634801F095F9F6E095
:10042C0000224FF40071604801F08EF900224FF465
:10043C0080715D4801F088F901224FF480615A48BF
:10044C0001F082F901224FF40061574801F07CF968
:10045C0000224FF48051544801F076F900224FF4F9
:10046C000051514801F070F901224FF480414E487F
:10047C0001F06AF901224FF400414B4801F064F994
:10048C00C5E000224FF40071474801F05DF90022ED
:10049C004FF48071444801F057F901224FF4806108
:1004AC00414801F051F901224FF400613E4801F03E
:1004BC004BF900224FF480513B4801F045F90022E2
:1004CC004FF40051384801F03FF901224FF48041BC
:1004DC00354801F039F901224FF40041324801F05E
:1004EC0033F994E000224FF400712F4801F02CF9FD
:1004FC0001224FF480712C4801F026F900224FF4B0
:10050C008061294801F020F900224FF4006126484F
:10051C0001F01AF900224FF48051234801F014F92C
:10052C0000224FF40051204801F00EF900224FF444
:10053C0080411D4801F008F900224FF400411A488F
:10054C0001F002F963E001224FF48071164801F0CA
:10055C00FBF801224FF40071134801F0F5F800226A
:10056C004FF48061104801F0EFF800224FF4006165
:10057C000D4801F0E9F800224FF480510A4801F0CF
:10058C00E3F800224FF40051074801F0DDF8002297
:10059C004FF48041044801F0D7F800224FF4004199
:1005AC00014801F0D1F832E0000C014001224FF477
:1005BC008071194801F0C8F801224FF400711648F7
:1005CC0001F0C2F801224FF48061134801F0BCF82D
:1005DC0001224FF40061104801F0B6F801224FF4EB
:1005EC0080510D4801F0B0F801224FF400510A4837
:1005FC0001F0AAF801224FF48041074801F0A4F859
:10060C0001224FF40041044801F09EF800BF00BFE6
:10061C000837BD4680BD00BF000C014080B582B0DC
:10062C0000AF78607B68032B3CD801A252F823F012
:10063C004D060008650600087D06000897060008B0
:10064C00002240211D4801F07FF801224FF4607117
:10065C001A4801F079F826E001224FF4507117483E
:10066C0001F072F800228021144801F06DF81AE0B4
:10067C0001224FF43071114801F066F800224FF45A
:10068C0080710E4801F060F80DE001224FF4E0712A
:10069C000A4801F059F800224FF40071074801F0A4
:1006AC0053F800E000BF064A7B6852F82330184626
:1006BC00FFF746FD00BF0837BD4680BD000801406E
:1006CC000400002080B483B000AF786039607B6890
:1006DC00184A82FB03129210DB17D31A164A1360C6
:1006EC007968144B83FB01239A10CB17D21A13464B
:1006FC009B0013445B00CA1A0F4B5A603B680D4AAF
:10070C0082FB03129210DB17D31A0B4A93603968E1
:10071C00084B83FB01239A10CB17D21A13469B006C
:10072C0013445B00CA1A044BDA6000BF0C37BD4699
:10073C0080BC7047676666660400002080B582B096
:10074C0000AF78607B68072B00F28E8101A252F813
:10075C0023F000BF81070008DF0700083D080008F0
:10076C009B080008F908000857090008B50900089B
:10077C00130A000800220421BA4800F0E5FF012208
:10078C000821B84800F0E0FF01224FF48061B54821
:10079C0000F0DAFF01224FF40061B24800F0D4FF00
:1007AC0001224FF48051AF4800F0CEFF01224FF4EC
:1007BC000051AC4800F0C8FF01224FF48041A94819
:1007CC0000F0C2FF01224FF40041A64800F0BCFF2C
:1007DC0079E101220421A34800F0B6FF0022082190
:1007EC00A04800F0B1FF01224FF480619D4800F059
:1007FC00ABFF01224FF400619A4800F0A5FF0122E3
:10080C004FF48051974800F09FFF01224FF40051A4
:10081C00944800F099FF01224FF48041914800F078
:10082C0093FF01224FF400418E4800F08DFF4AE106
:10083C00012204218B4800F087FF012208218948FE
:10084C0000F082FF00224FF48061864800F07CFFAC
:10085C0001224FF40061834800F076FF01224FF42F
:10086C008051804800F070FF01224FF400517D4808
:10087C0000F06AFF01224FF480417A4800F064FFD7
:10088C0001224FF40041774800F05EFF1BE101228A
:10089C000421744800F058FF01220821714800F02F
:1008AC0053FF01224FF480616E4800F04DFF00228F
:1008BC004FF400616B4800F047FF01224FF4805168
:1008CC00684800F041FF01224FF40051654800F0E8
:1008DC003BFF01224FF48041624800F035FF0122BA
:1008EC004FF400415F4800F02FFFECE0012204219F
:1008FC005C4800F029FF012208215A4800F024FF2F
:10090C0001224FF48061574800F01EFF01224FF482
:10091C000061544800F018FF00224FF480515148F8
:10092C0000F012FF01224FF400514E4800F00CFF72
:10093C0001224FF480414B4800F006FF01224FF496
:10094C000041484800F000FFBDE001220421454869
:10095C0000F0FAFE01220821424800F0F5FE0122C7
:10096C004FF480613F4800F0EFFE01224FF400612C
:10097C003C4800F0E9FE01224FF48051394800F068
:10098C00E3FE00224FF40051364800F0DDFE012258
:10099C004FF48041334800F0D7FE01224FF4004160
:1009AC00304800F0D1FE8EE0012204212D4800F0E9
:1009BC00CBFE012208212B4800F0C6FE01224FF489
:1009CC008061284800F0C0FE01224FF400612548E8
:1009DC0000F0BAFE01224FF48051224800F0B4FE20
:1009EC0001224FF400511F4800F0AEFE00224FF4DC
:1009FC0080411C4800F0A8FE01224FF40041194828
:100A0C0000F0A2FE5FE001220421164800F09CFEDB
:100A1C0001220821134800F097FE01224FF4806157
:100A2C00104800F091FE01224FF400610D4800F0D7
:100A3C008BFE01224FF480510A4800F085FE012202
:100A4C004FF40051074800F07FFE01224FF4804123
:100A5C00044800F079FE00224FF40041014800F0F8
:100A6C0073FE30E000080140012204211B4800F015
:100A7C006BFE01220821194800F066FE01224FF49A
:100A8C008061164800F060FE01224FF400611348AB
:100A9C0000F05AFE01224FF48051104800F054FE31
:100AAC0001224FF400510D4800F04EFE01224FF48C
:100ABC0080410A4800F048FE01224FF400410748EB
:100ACC0000F042FE00BF064A7B6813441B781846B0
:100ADC00FFF7CAFB00BF0837BD4680BD00080140C8
:100AEC001400002080B584B000AF00F043FB00F090
:100AFC0093F800F019F900F0CBF801224FF6FF71D2
:100B0C003D4800F021FE00224FF6FF713B4800F0FB
:100B1C001BFE3B4801F076FA4FF4FA7000F0B0F986
:100B2C00FA2000F0C9F94FF47A7000F0E1F90A20CC
:100B3C0000F0FAF91723FB603B23BB6032237B6088
:100B4C00304B1B68012B23D14FF47A7000F0D0F995
:100B5C001021294800F010FE2021274800F00CFE3F
:100B6C007B6801337B607B683B2B04DD00237B605F
:100B7C00BB680133BB60BB683B2B04DD0023BB604F
:100B8C00FB680133FB60FB68172B01DD0023FB6066
:100B9C001D4B1B68012B16D1B968F868FFF792FD45
:100BAC00FA2000F089F9194B1B680422934202DBEE
:100BBC00164B00221A60154B1B685A1C13490A600D
:100BCC001846FFF72BFD124B1B68012BB8D1114BAC
:100BDC001B680822934202DB0E4B00221A600A208B
:100BEC0000F0A2F90B4B1B685A1C0A490A60184604
:100BFC00FFF7A4FDA4E700BF00080140000C014072
:100C0C0070000020640000205C00002048000020E0
:100C1C006C0000204C00002080B590B000AF07F1B4
:100C2C00180328220021184601F09CFD3B1D0022D0
:100C3C001A605A609A60DA601A610223BB61012360
:100C4C00BB621023FB6200237B6307F11803184679
:100C5C0000F0ACFD0346002B01D000F00BF90F2384
:100C6C007B600023BB600023FB6000233B610023FF
:100C7C007B613B1D0021184601F018F80346002B40
:100C8C0001D000F0F7F800BF4037BD4680BD000032
:100C9C0080B586B000AF07F1080300221A605A60D5
:100CAC009A60DA603B4600221A605A601D4B4FF086
:100CBC0080421A601B4B41F63F725A60194B00225E
:100CCC009A60184B0922DA60164B00221A61154BF8
:100CDC0000229A61134801F045F90346002B01D01C
:100CEC0000F0C8F84FF48053BB6007F108031946B5
:100CFC000C4801F0C3FA0346002B01D000F0BAF8FF
:100D0C0000233B6000237B603B461946054801F0FD
:100D1C009BFC0346002B01D000F0ACF800BF183749
:100D2C00BD4680BD7000002080B586B000AF07F1D5
:100D3C00080300221A605A609A60DA60224B9B69A1
:100D4C00214A43F0040393611F4B9B6903F0040396
:100D5C007B607B681C4B9B691B4A43F008039361C7
:100D6C00194B9B6903F008033B603B6800224FF66C
:100D7C00FC71164800F0E8FC00224FF67F71144815
:100D8C0000F0E2FC4FF6FC73BB600123FB60002318
:100D9C003B6102237B6107F1080319460B4800F005
:100DAC0059FB4FF67F73BB600123FB6000233B6153
:100DBC0002237B6107F108031946054800F04AFB42
:100DCC0000BF1837BD4680BD00100240000801402E
:100DDC00000C014080B582B000AF7860224B1B68DC
:100DEC00013B214A1360204B1B68002B35DC1E4B4A
:100DFC0032221A601D4B1B68012B02D0022B19D01A
:100E0C002CE01A4B1B681846FFF79AF90022402178
:100E1C00174800F099FC01228021154800F094FC41
:100E2C002021134800F0A8FC104B1B6801330F4A1B
:100E3C00136013E00D4B1B681846FFF781F9012274
:100E4C0040210B4800F080FC00228021084800F073
:100E5C007BFC064B01221A6000E000BF00F080F81A
:100E6C0000BF0837BD4680BD1C00002000000020DC
:100E7C000008014080B400AF72B600BFFEE700006E
:100E8C0080B483B000AF78607B68084A82FB0312A1
:100E9C009210DB17D31A064A1360064B00221A6015
:100EAC0000BF0C37BD4680BC704700BF67666666E6
:100EBC00500000205400002080B483B000AF786054
:100ECC007B68084A82FB03129210DB17D31A064A7E
:100EDC001360064B00221A6000BF0C37BD4680BC65
:100EEC00704700BF67666666580000205C000020F3
:100EFC0080B483B000AF78607B68084A82FB031231
:100F0C009210DB17D31A064A1360064B00221A60A4
:100F1C0000BF0C37BD4680BC704700BF6766666675
:100F2C00600000206400002080B483B000AF7860C3
:100F3C007B68084A82FB03129210DB17D31A064A0D
:100F4C001360064B00221A6000BF0C37BD4680BCF4
:100F5C00704700BF67666666680000206C00002062
:100F6C0080B400AF214B1B68002B0BDD1F4B1B68A3
:100F7C00013B1E4A13601D4B1B68002B02DC1C4BF3
:100F8C0001221A601B4B1B68002B0BDD194B1B68D5
:100F9C00013B184A1360174B1B68002B02DC164BE5
:100FAC0001221A60154B1B68002B0BDD134B1B68C1
:100FBC00013B124A1360114B1B68002B02DC104BD7
:100FCC0001221A600F4B1B68002B0BDD0D4B1B68AD
:100FDC00013B0C4A13600B4B1B68002B02DC0A4BC9
:100FEC0001221A6000BFBD4680BC70475000002033
:100FFC0054000020580000205C00002060000020FD
:10100C0064000020680000206C00002080B485B0D3
:10101C0000AF154B9B69144A43F001039361124BCB
:10102C009B6903F00103BB60BB680F4BDB690E4A85
:10103C0043F08053D3610C4BDB6903F080537B602E
:10104C007B680A4B5B68FB60FB6823F0E063FB602A
:10105C00FB6843F08063FB60044AFB68536000BF8D
:10106C001437BD4680BC70470010024000000140A0
:10107C0080B584B000AF78607B681B68B3F1804F9B
:10108C0013D10C4BDB690B4A43F00103D361094BC1
:10109C00DB6903F00103FB60FB68002200211C20CC
:1010AC0000F0A1F91C2000F0BAF900BF1037BD46C2
:1010BC0080BD00BF0010024080B400AFFEE780B4DA
:1010CC0000AFFEE780B400AFFEE780B400AFFEE7F0
:1010DC0080B400AFFEE780B400AF00BFBD4680BC5B
:1010EC00704780B400AF00BFBD4680BC704780B471
:1010FC0000AF00BFBD4680BC704780B500AF00F0AC
:10110C007FF800BF80BD000080B500AF024800F042
:10111C00C5FF00BF80BD00BF7000002080B400AFD1
:10112C0000BFBD4680BC7047FFF7F8FF0B480C4969
:10113C000C4A002302E0D458C4500433C4188C4227
:10114C00F9D3094A094C002301E013600432A2428E
:10115C00FBD301F0E3FAFFF7C5FC70470000002059
:10116C002C000020C42700082C000020BC0000200C
:10117C00FEE7000080B500AF084B1B68074A43F040
:10118C0010031360032000F023F90F2000F008F87F
:10119C00FFF73CFF0023184680BD00BF0020024033
:1011AC0080B582B000AF7860124B1A68124B1B7876
:1011BC0019464FF47A73B3FBF1F3B2FBF3F3184611
:1011CC0000F03BF90346002B01D001230EE07B68B5
:1011DC000F2B0AD8002279684FF0FF3000F003F98A
:1011EC00064A7B681360002300E001231846083789
:1011FC00BD4680BD200000202800002024000020D7
:10120C0080B400AF054B1B781A46054B1B68134482
:10121C00034A136000BFBD4680BC70472800002005
:10122C00B800002080B400AF024B1B681846BD46C6
:10123C0080BC7047B800002080B485B000AF7860E7
:10124C007B6803F00703FB600C4BDB68BB60BA6880
:10125C004FF6FF031340BB60FB681A02BB681343D5
:10126C0043F0BF6343F40033BB60044ABB68D360F4
:10127C0000BF1437BD4680BC704700BF00ED00E0D6
:10128C0080B400AF044BDB681B0A03F0070318465D
:10129C00BD4680BC704700BF00ED00E080B483B059
:1012AC0000AF0346FB7197F90730002B0BDBFB7982
:1012BC0003F01F02064997F907305B09012000FA79
:1012CC0002F241F8232000BF0C37BD4680BC7047AA
:1012DC0000E100E080B483B000AF03463960FB71DD
:1012EC0097F90730002B0ADB3B68DAB20C4997F907
:1012FC0007301201D2B20B4483F800230AE03B689A
:10130C00DAB20849FB7903F00F03043B1201D2B2A5
:10131C000B441A7600BF0C37BD4680BC704700BF2B
:10132C0000E100E000ED00E080B489B000AFF860AF
:10133C00B9607A60FB6803F00703FB61FB69C3F1DA
:10134C000703042B28BF0423BB61FB690433062B62
:10135C0002D9FB69033B00E000237B614FF0FF32B5
:10136C00BB6902FA03F3DA43BB681A407B699A4003
:10137C004FF0FF317B6901FA03F3D9437B680B40D3
:10138C00134318462437BD4680BC704780B582B0E5
:10139C0000AF78607B68013BB3F1807F01D3012300
:1013AC000FE00A4A7B68013B53600F214FF0FF307E
:1013BC00FFF790FF054B00229A60044B07221A603E
:1013CC00002318460837BD4680BD00BF10E000E082
:1013DC0080B582B000AF78607868FFF72DFF00BF52
:1013EC000837BD4680BD80B586B000AF0346B960F6
:1013FC007A60FB7300237B61FFF742FF78617A68A8
:10140C00B9687869FFF790FF024697F90F301146DB
:10141C001846FFF75FFF00BF1837BD4680BD80B58B
:10142C0082B000AF0346FB7197F907301846FFF7FF
:10143C0035FF00BF0837BD4680BD80B582B000AF18
:10144C0078607868FFF7A2FF034618460837BD4658
:10145C0080BD000080B48BB000AF78603960002391
:10146C007B6200233B6248E101227B6A02FA03F3B0
:10147C00FB613B681B68FA691340BB61BA69FB6985
:10148C009A4240F037813B685B68A34A93425ED036
:10149C00A14A934275D8A14A934258D09F4A93428D
:1014AC006FD89F4A934252D09D4A934269D89D4A25
:1014BC0093424CD09B4A934263D89B4A934246D06A
:1014CC00994A93425DD8122B2AD8122B59D801A2D3
:1014DC0052F823F05B150008351500084715000875
:1014EC00891500088F1500088F1500088F15000846
:1014FC008F1500088F1500088F1500088F15000830
:10150C008F1500088F1500088F1500088F1500081F
:10151C008F1500088F1500083D150008511500089F
:10152C00824A934213D02CE03B68DB683B6229E093
:10153C003B68DB6804333B6224E03B68DB680833C0
:10154C003B621FE03B68DB680C333B621AE03B6894
:10155C009B68002B02D104233B6213E03B689B6821
:10156C00012B05D108233B627B68FA691A6109E0FB
:10157C0008233B627B68FA695A6103E000233B62F3
:10158C0000E000BFBB69FF2B01D87B6801E07B68E2
:10159C0004337B61BB69FF2B02D87B6A9B0002E0A2
:1015AC007B6A083B9B003B617B691A680F213B6996
:1015BC0001FA03F3DB431A40396A3B6901FA03F37E
:1015CC001A437B691A603B685B6803F08053002BFD
:1015DC0000F09080564B9B69554A43F00103936190
:1015EC00534B9B6903F00103BB60BB68514A7B6A98
:1015FC009B08023352F82330FB607B6A03F0030331
:10160C009B000F2202FA03F3DB43FA681340FB60E2
:10161C007B68494A93420DD07B68484A934207D075
:10162C007B68474A934201D1022304E0032302E082
:10163C00012300E000237A6A02F003029200934037
:10164C00FA681343FB603B497B6A9B080233FA68D8
:10165C0041F823203B685B6803F48013002B06D011
:10166C00384B9A683749BB6913438B6006E0354B9E
:10167C009A68BB69DB43334913408B603B685B68FA
:10168C0003F40013002B06D02E4BDA682D49BB69EE
:10169C001343CB6006E02B4BDA68BB69DB4329496B
:1016AC001340CB603B685B6803F40033002B06D01F
:1016BC00244B5A682349BB6913434B6006E0214B0A
:1016CC005A68BB69DB431F4913404B603B685B683E
:1016DC0003F48033002B06D01A4B1A681949BB69E6
:1016EC0013430B6006E0174B1A68BB69DB431549C3
:1016FC0013400B607B6A01337B623B681A687B6A20
:10170C0022FA03F3002B7FF4AFAE00BF00BF2C37DF
:10171C00BD4680BC704700BF000032100000311085
:10172C000000221000002110000012100000111007
:10173C00001002400000014000080140000C014074
:10174C00001001400004014080B483B000AF786009
:10175C000B467B8013467B707B78002B03D07A88FA
:10176C007B681A6103E07B881A047B681A6100BFEE
:10177C000C37BD4680BC704780B485B000AF786034
:10178C000B467B807B68DB68FB607A88FB681340C8
:10179C001A04FB68D9437B880B401A437B681A6197
:1017AC0000BF1437BD4680BC7047000080B586B0C2
:1017BC0000AF78607B68002B01D101236CE27B6861
:1017CC001B6803F00103002B00F08780924B5B68D1
:1017DC0003F00C03042B0CD08F4B5B6803F00C0351
:1017EC00082B12D18C4B5B6803F48033B3F5803F2C
:1017FC000BD1894B1B6803F40033002B6CD07B6836
:10180C005B68002B68D1012346E27B685B68B3F50B
:10181C00803F06D1804B1B687F4A43F480331360B2
:10182C002EE07B685B68002B0CD17B4B1B687A4AE3
:10183C0023F480331360784B1B68774A23F480239E
:10184C0013601DE07B685B68B3F5A02F0CD1724B65
:10185C001B68714A43F4802313606F4B1B686E4AFC
:10186C0043F4803313600BE06B4B1B686A4A23F420
:10187C0080331360684B1B68674A23F48023136022
:10188C007B685B68002B13D0FFF7CCFC386108E059
:10189C00FFF7C8FC02463B69D31A642B01D903231A
:1018AC00FAE15D4B1B6803F40033002BF0D014E01D
:1018BC00FFF7B8FC386108E0FFF7B4FC02463B695F
:1018CC00D31A642B01D90323E6E1534B1B6803F4B1
:1018DC000033002BF0D100E000BF7B681B6803F0E5
:1018EC000203002B63D04C4B5B6803F00C03002B02
:1018FC000BD0494B5B6803F00C03082B1CD1464BF7
:10190C005B6803F48033002B16D1434B1B6803F048
:10191C000203002B05D07B681B69012B01D001232E
:10192C00BAE13D4B1B6823F0F8027B685B69DB0076
:10193C00394913430B603AE07B681B69002B20D0BC
:10194C00364B01221A60FFF76DFC386108E0FFF797
:10195C0069FC02463B69D31A022B01D903239BE194
:10196C002D4B1B6803F00203002BF0D02A4B1B6895
:10197C0023F0F8027B685B69DB00274913430B609B
:10198C0015E0264B00221A60FFF74CFC386108E08A
:10199C00FFF748FC02463B69D31A022B01D90323FB
:1019AC007AE11D4B1B6803F00203002BF0D17B681E
:1019BC001B6803F00803002B3AD07B689B69002B53
:1019CC0019D0174B01221A60FFF72CFC386108E084
:1019DC00FFF728FC02463B69D31A022B01D90323DB
:1019EC005AE10D4B5B6A03F00203002BF0D001208F
:1019FC0000F09AFA1CE00A4B00221A60FFF712FC66
:101A0C0038610FE0FFF70EFC02463B69D31A022B3C
:101A1C0008D9032340E100BF0010024000004242FD
:101A2C00800442429E4B5B6A03F00203002BE9D117
:101A3C007B681B6803F00403002B00F0A6800023D6
:101A4C00FB75974BDB6903F08053002B0DD1944B46
:101A5C00DB69934A43F08053D361914BDB6903F00C
:101A6C008053BB60BB680123FB758E4B1B6803F472
:101A7C008073002B18D18B4B1B688A4A43F48073FC
:101A8C001360FFF7CFFB386108E0FFF7CBFB024692
:101A9C003B69D31A642B01D90323FDE0814B1B68EE
:101AAC0003F48073002BF0D07B68DB68012B06D12C
:101ABC007B4B1B6A7A4A43F0010313622DE07B686F
:101ACC00DB68002B0CD1764B1B6A754A23F00103A3
:101ADC001362734B1B6A724A23F0040313621CE0FB
:101AEC007B68DB68052B0CD16D4B1B6A6C4A43F091
:101AFC00040313626A4B1B6A694A43F001031362C5
:101B0C000BE0674B1B6A664A23F001031362644BBC
:101B1C001B6A634A23F0040313627B68DB68002BA7
:101B2C0015D0FFF77FFB38610AE0FFF77BFB02461D
:101B3C003B69D31A41F28832934201D90323ABE0BB
:101B4C00574B1B6A03F00203002BEED014E0FFF797
:101B5C0069FB38610AE0FFF765FB02463B69D31A63
:101B6C0041F28832934201D9032395E04C4B1B6A16
:101B7C0003F00203002BEED1FB7D012B05D1484B6A
:101B8C00DB69474A23F08053D3617B68DB69002B08
:101B9C0000F08180424B5B6803F00C03082B61D092
:101BAC007B68DB69022B46D13F4B00221A60FFF7A2
:101BBC0039FB386108E0FFF735FB02463B69D31A65
:101BCC00022B01D9032367E0354B1B6803F000732C
:101BDC00002BF0D17B681B6AB3F5803F08D1304BEA
:101BEC005B6823F400327B689B682D4913434B6080
:101BFC002B4B5B6823F474127B68196A7B685B6AF5
:101C0C000B43274913434B60274B01221A60FFF704
:101C1C0009FB386108E0FFF705FB02463B69D31A64
:101C2C00022B01D9032337E01D4B1B6803F0007313
:101C3C00002BF0D02FE01C4B00221A60FFF7F2FAB9
:101C4C00386108E0FFF7EEFA02463B69D31A022B23
:101C5C0001D9032320E0124B1B6803F00073002B07
:101C6C00F0D118E07B68DB69012B01D1012313E073
:101C7C000B4B5B68FB60FB6803F480327B681B6A70
:101C8C009A4206D1FB6803F470127B685B6A9A4235
:101C9C0001D0012300E0002318461837BD4680BD53
:101CAC0000100240007000406000424280B584B0D9
:101CBC0000AF786039607B68002B01D10123D0E044
:101CCC006A4B1B6803F007033A689A4210D9674BBA
:101CDC001B6823F0070265493B6813430B60634B99
:101CEC001B6803F007033A689A4201D00123B8E05D
:101CFC007B681B6803F00203002B20D07B681B68F9
:101D0C0003F00403002B05D0594B5B68584A43F48D
:101D1C00E06353607B681B6803F00803002B05D05D
:101D2C00534B5B68524A43F460535360504B5B68AF
:101D3C0023F0F0027B689B684D4913434B607B6832
:101D4C001B6803F00103002B40D07B685B68012B00
:101D5C0007D1474B1B6803F40033002B15D101232B
:101D6C007FE07B685B68022B07D1414B1B6803F05B
:101D7C000073002B09D1012373E03D4B1B6803F06A
:101D8C000203002B01D101236BE0394B5B6823F07C
:101D9C0003027B685B68364913434B60FFF742FADA
:101DAC00F8600AE0FFF73EFA0246FB68D31A41F2EC
:101DBC008832934201D9032353E02D4B5B6803F027
:101DCC000C027B685B689B009A42EBD1274B1B682B
:101DDC0003F007033A689A4210D2244B1B6823F095
:101DEC00070222493B6813430B60204B1B6803F02E
:101DFC0007033A689A4201D0012332E07B681B68E2
:101E0C0003F00403002B08D0194B5B6823F4E06249
:101E1C007B68DB68164913434B607B681B6803F0D7
:101E2C000803002B09D0124B5B6823F460527B68CB
:101E3C001B69DB000E4913434B6000F021F802468E
:101E4C000B4B5B681B0903F00F030A49CB5C22FAAE
:101E5C0003F3094A1360094B1B681846FFF7A0F9F6
:101E6C00002318461037BD4680BD00BF002002403D
:101E7C0000100240982700082000002024000020B9
:101E8C0080B487B000AF0023FB600023BB6000234D
:101E9C007B6100237B6000233B611E4B5B68FB6016
:101EAC00FB6803F00C03042B02D0082B03D027E0B3
:101EBC00194B3B6127E0FB689B0C03F00F03174A9F
:101ECC00D35C7B60FB6803F48033002B10D0114B88
:101EDC005B685B0C03F00103114AD35CBB607B684D
:101EEC000D4A02FB03F2BB68B2FBF3F37B6104E027
:101EFC007B680C4A02FB03F37B617B693B6102E06C
:101F0C00054B3B6100BF3B6918461C37BD4680BC86
:101F1C00704700BF0010024000127A00A82700088A
:101F2C00B827000800093D0080B485B000AF786088
:101F3C000A4B1B680A4AA2FB03235B0A7A6802FB62
:101F4C0003F3FB6000BFFB685A1EFA60002BF9D14B
:101F5C0000BF00BF1437BD4680BC70472000002076
:101F6C00D34D621080B582B000AF78607B68002BD7
:101F7C0001D1012341E07B6893F83D30DBB2002BAB
:101F8C0006D17B68002283F83C207868FFF770F854
:101F9C007B68022283F83D207B681A687B680433D7
:101FAC001946104600F056FA7B68012283F8462049
:101FBC007B68012283F83E207B68012283F83F2056
:101FCC007B68012283F840207B68012283F8412042
:101FDC007B68012283F842207B68012283F843202E
:101FEC007B68012283F844207B68012283F845201A
:101FFC007B68012283F83D20002318460837BD4634
:10200C0080BD000080B485B000AF78607B6893F829
:10201C003D30DBB2012B01D0012335E07B6802227D
:10202C0083F83D207B681B68DA687B681B6842F08C
:10203C000102DA607B681B68164A934209D07B6800
:10204C001B68B3F1804F04D07B681B68124A934223
:10205C0011D17B681B689B6803F00703FB60FB686E
:10206C00062B10D07B681B681A687B681B6842F0D3
:10207C0001021A6007E07B681B681A687B681B68A2
:10208C0042F001021A60002318461437BD4680BC8A
:10209C00704700BF002C01400004004080B584B0A4
:1020AC0000AF78607B681B68DB68FB607B681B6833
:1020BC001B69BB60BB6803F00203002B20D0FB68DC
:1020CC0003F00203002B1BD07B681B686FF002022D
:1020DC001A617B6801221A777B681B689B6903F085
:1020EC000303002B03D0786800F098F905E07868BA
:1020FC0000F08BF9786800F09AF97B6800221A7767
:10210C00BB6803F00403002B20D0FB6803F004032E
:10211C00002B1BD07B681B686FF004021A617B6874
:10212C0002221A777B681B689B6903F44073002BAF
:10213C0003D0786800F072F905E0786800F065F972
:10214C00786800F074F97B6800221A77BB6803F09A
:10215C000803002B20D0FB6803F00803002B1BD0D6
:10216C007B681B686FF008021A617B6804221A777F
:10217C007B681B68DB6903F00303002B03D07868D2
:10218C0000F04CF905E0786800F03FF9786800F051
:10219C004EF97B6800221A77BB6803F01003002B02
:1021AC0020D0FB6803F01003002B1BD07B681B684E
:1021BC006FF010021A617B6808221A777B681B6823
:1021CC00DB6903F44073002B03D0786800F026F928
:1021DC0005E0786800F019F9786800F028F97B6858
:1021EC0000221A77BB6803F00103002B0CD0FB68AC
:1021FC0003F00103002B07D07B681B686FF0010212
:10220C001A617868FEF7E6FDBB6803F08003002BCB
:10221C000CD0FB6803F08003002B07D07B681B6895
:10222C006FF080021A61786800F06FFABB6803F0F7
:10223C004003002B0CD0FB6803F04003002B07D0AD
:10224C007B681B686FF040021A61786800F0F8F840
:10225C00BB6803F02003002B0CD0FB6803F02003B9
:10226C00002B07D07B681B686FF020021A6178681E
:10227C0000F042FA00BF1037BD4680BD80B584B077
:10228C0000AF786039600023FB737B6893F83C30B7
:10229C00012B01D10223B4E07B68012283F83C209E
:1022AC007B68022283F83D207B681B689B68BB60BF
:1022BC00BB6823F07703BB60BB6823F47F43BB6030
:1022CC007B681B68BA689A603B681B68B3F5005F53
:1022DC003ED0B3F5005F00F28780B3F5805F00F06D
:1022EC008680B3F5805F7FD8702B1AD0702B7BD88B
:1022FC00602B50D0602B77D8502B3CD0502B73D800
:10230C00402B58D0402B6FD8302B64D0302B6BD84F
:10231C00202B60D0202B67D8002B5CD0102B5AD0F0
:10232C0062E07B6818683B6899683B685A683B6850
:10233C00DB6800F06AF97B681B689B68BB60BB6854
:10234C0043F07703BB607B681B68BA689A604FE008
:10235C007B6818683B6899683B685A683B68DB681F
:10236C0000F053F97B681B689A687B681B6842F421
:10237C0080429A603CE07B6818683B6859683B680F
:10238C00DB681A4600F0CAF87B681B6850211846B7
:10239C0000F021F92CE07B6818683B6859683B68B1
:1023AC00DB681A4600F0E8F87B681B686021184669
:1023BC0000F011F91CE07B6818683B6859683B68B1
:1023CC00DB681A4600F0AAF87B681B6840211846A7
:1023DC0000F001F90CE07B681A683B681B68194631
:1023EC00104600F0F8F803E00123FB7300E000BF97
:1023FC007B68012283F83D207B68002283F83C2017
:10240C00FB7B18461037BD4680BD80B483B000AF4F
:10241C00786000BF0C37BD4680BC704780B483B079
:10242C0000AF786000BF0C37BD4680BC704780B4ED
:10243C0083B000AF786000BF0C37BD4680BC7047DE
:10244C0080B483B000AF786000BF0C37BD4680BC51
:10245C007047000080B485B000AF786039607B684D
:10246C001B68FB607B682B4A934207D07B68B3F1F7
:10247C00804F03D07B68284A934208D1FB6823F035
:10248C007003FB603B685B68FA681343FB607B6816
:10249C00204A934207D07B68B3F1804F03D07B680E
:1024AC001D4A934208D1FB6823F44073FB603B68E0
:1024BC00DB68FA681343FB60FB6823F080023B681F
:1024CC005B691343FB607B68FA681A603B689A6827
:1024DC007B68DA623B681A687B689A627B680D4A93
:1024EC00934203D13B681A697B681A637B680122AB
:1024FC005A617B681B6903F00103002B05D07B68D4
:10250C001B6923F001027B681A6100BF1437BD46BA
:10251C0080BC7047002C01400004004080B487B0A0
:10252C0000AFF860B9607A60FB681B6A7B61FB687E
:10253C001B6A23F00102FB681A62FB689B693B6112
:10254C003B6923F0F0033B617B681B013A69134341
:10255C003B617B6923F00A037B617A69BB68134397
:10256C007B61FB683A699A61FB687A691A6200BF01
:10257C001C37BD4680BC704780B487B000AFF86094
:10258C00B9607A60FB681B6A7B61FB681B6A23F08D
:10259C001002FB681A62FB689B693B613B6923F480
:1025AC0070433B617B681B033A6913433B617B6956
:1025BC0023F0A0037B61BB681B017A6913437B6129
:1025CC00FB683A699A61FB687A691A6200BF1C372A
:1025DC00BD4680BC704780B485B000AF7860396070
:1025EC007B689B68FB60FB6823F07003FB603A68B8
:1025FC00FB68134343F00703FB607B68FA689A603F
:10260C0000BF1437BD4680BC704780B487B000AFA4
:10261C00F860B9607A603B60FB689B687B617B69A2
:10262C0023F47F437B613B681A027B681A43BB68C7
:10263C0013437A6913437B61FB687A699A6000BF24
:10264C001C37BD4680BC704780B485B000AF786045
:10265C0039607B6893F83C30012B01D1022341E0B7
:10266C007B68012283F83C207B68022283F83D20A2
:10267C007B681B685B68FB607B681B689B68BB6046
:10268C00FB6823F07003FB603B681B68FA6813431C
:10269C00FB607B681B68FA685A607B681B68144A8D
:1026AC00934209D07B681B68B3F1804F04D07B68E0
:1026BC001B68104A93420CD1BB6823F08003BB60AB
:1026CC003B685B68BA681343BB607B681B68BA687D
:1026DC009A607B68012283F83D207B68002283F896
:1026EC003C20002318461437BD4680BC704700BF01
:1026FC00002C01400004004080B483B000AF78602F
:10270C0000BF0C37BD4680BC704780B483B000AFAF
:10271C00786000BF0C37BD4680BC704770B5002692
:10272C000C4D0D4C641BA410A64209D100F022F8EC
:10273C0000260A4D0A4C641BA410A64205D170BD9C
:10274C0055F8043B98470136EEE755F8043B98479B
:10275C000136F2E7BC270008BC270008BC2700089C
:10276C00C027000803460244934200D1704703F887
:10277C00011BF9E7F8B500BFF8BC08BC9E467047D2
:0C278C00F8B500BFF8BC08BC9E467047C2
:102798000000000000000000010203040607080909
:1027A80002030405060708090A0B0C0D0E0F10108A
:0427B800010200001A
:0427BC0031010008DF
:0427C0000D010008FF
:1027C40001000000010000000200000003000000FE
:1027D400040000000102030405060708320000009B
:0C27E40000127A0010000000010000004C
:0400000508001135A9
:00000001FF
